:020000040800F2
:1000000008090020590100087F010008810100084B
:1000100000000000000000000000000000000000E0
:100020000000000000000000000000008301000844
:10003000000000000000000085010008D11C00083D
:1000400089010008000000008901000889010008FA
:100050008901000889010008890100088901000858
:1000600000000000CD130008890100088901000884
:1000700045130008890100088901000800000000FC
:10008000890100080000000000000000890100084C
:10009000491E00088901000889010008890100083B
:1000A000890100088901000889010008F921000878
:1000B0008901000800F002F800F03EF80CA030C8FA
:1000C000083824182D18A246671EAB4654465D46D4
:1000D000AC4201D100F030F87E460F3E0FCCB64660
:1000E0000126334200D0FB1AA246AB4633431847E1
:1000F000C8290000E8290000103A02D378C878C166
:10010000FAD8520701D330C830C101D504680C6059
:10011000704700000023002400250026103A01D378
:1001200078C1FBD8520700D330C100D50B607047AF
:100130001FB51FBD10B510BD01F0A6F81146FFF7A1
:10014000F7FF02F073F901F0BEF803B4FFF7F2FF16
:1001500003BC01F0EFF800000F4880F308880F4857
:100160000168090E0E4A914205D10E480E49016000
:100170000E480F4901600F4880470F480047FEE7CF
:10018000FEE7FEE7FEE7FEE7FEE700000B480C494E
:100190000C4A0D4B704700000809002004000000C5
:1001A0001F00000018100240010000000000014084
:1001B00000000000ED1D0008B50000080803002045
:1001C0000809002008050020080500200022030976
:1001D0008B422CD3030A8B4211D300239C464EE062
:1001E00003460B433CD4002243088B4231D303091E
:1001F0008B421CD3030A8B4201D394463FE0C309D0
:100200008B4201D3CB01C01A524183098B4201D3E7
:100210008B01C01A524143098B4201D34B01C01AD2
:10022000524103098B4201D30B01C01A5241C3084A
:100230008B4201D3CB00C01A524183088B4201D3B9
:100240008B00C01A524143088B4201D34B00C01AA5
:100250005241411A00D201465241104670475DE0BA
:10026000CA0F00D04942031000D34042534000223D
:100270009C4603098B422DD3030A8B4212D3FC22E6
:10028000890112BA030A8B420CD3890192118B4265
:1002900008D3890192118B4204D389013AD092117B
:1002A00000E08909C3098B4201D3CB01C01A524136
:1002B00083098B4201D38B01C01A524143098B42FF
:1002C00001D34B01C01A524103098B4201D30B01E8
:1002D000C01A5241C3088B4201D3CB00C01A52410D
:1002E00083088B4201D38B00C01A5241D9D24308F4
:1002F0008B4201D34B00C01A5241411A00D2014631
:10030000634652415B10104601D34042002B00D59A
:100310004942704763465B1000D3404201B500205C
:10032000C046C04602BD7047704770470246C80FBE
:10033000C00781434B0030B54B405B009B0D20D084
:100340001923DB06C91801231B05994220DB03246E
:10035000A40704251346AB400BD3002B04D1EB06B6
:1003600013409B00E34204D40124640700231219C4
:100370005941FF231B0599420BD2C9000143500F7D
:1003800009E0CB0204D501430803024305D0054828
:1003900030BDFF21C905084330BD084607210905C6
:1003A000884330BD0000C07FF0B50C46871A9C41E1
:1003B0000D46861A9D4103D2C01BA141D21963414B
:1003C0000D0D1F0DC94EEC1BAE435CD07F057F0D9C
:1003D0000026002F51D02D05AC46A943DD02012394
:1003E000ED0A1B051D4320231B1B24D41746E740A1
:1003F000381871412F46E740CC199D4028183146E6
:1004000061410C0D27D161449A4013D50023401C53
:10041000594152000ED14008400001224B005205C4
:10042000D34207D305204007C14201D5B04900E0BF
:10043000B0493046F0BD6B00002A00D001229A1866
:100440001F23203C1B1B01D5002302E0E540281898
:1004500071410C0DD7D0012424050919C407CD071B
:1004600040084908E40F28436144002CD5D00024FB
:10047000401C61419A40D0D1CDE76A05520DD9D1D7
:10048000C90FC907D5E79C4D4E00002801D00124B3
:1004900000E0002434195F00002A01D0012600E0AA
:1004A0000026BE19954FAC420CD8AE420AD8B442D1
:1004B00006D001256D05EC42BCD010461946F0BDB2
:1004C0009942FCD000203946F0BDF0B51FB40C466F
:1004D0000F46811A9F412546861A9D4106D2012565
:1004E000ED076F40401ABC4152187B41210D1E0D93
:1004F0008D1BAC467D4D8D437ED075056D0D7CD03A
:100500000D05AE46AC431B031B0B794D52429D417A
:10051000202366469B1B14D31746F7403818002645
:100520000090744160462F460741E41900989D40B1
:100530002818664116D4714671189A4025D50123B2
:1005400020E093182A466A415200002B00D0521C2A
:100550001E23203E9B1B002B61DD3541EE17281822
:100560006641E8D5001876415B1C9A4000D3401CD8
:100570004B05F3181524E34010D3002B52D07146DD
:100580007118D30FC01802D3491C05B0F0BD012368
:10059000DB079A42F9D140084000F6E701225205F4
:1005A000B21801D1002853D00123CC0ADB029943B1
:1005B000891E002A08D1020C03D0020C0004103955
:1005C00002E00246002020390023550B05D112021B
:1005D0000823550B01D152010D23550C01D11201F5
:1005E0001B1DD50C01D192009B1C150D01D1520091
:1005F0005B1C2025EE1A01E02CE022E00546F540C8
:1006000015439840CA1AE10769181305C918002A4A
:10061000BBDA032040070818C10FC9070FE0714675
:100620006118B2E7F10740080843711071444A00AD
:100630000CD001235B059A42A7D2C90FC90700203D
:10064000A3E74905490D26D1002001E00028F4D197
:1006500000219AE7284D6600002801D0012100E022
:10066000002171185F00002A01D0012600E0002659
:10067000BE19224FA94210D8AE420ED8B14208D0BE
:1006800001256D05E94206D01946A80241401046F1
:100690007BE79C4201D0214677E70020394674E78A
:1006A00010B50C465C4005D50124E4076340FFF714
:1006B0000CFF10BDFFF778FE10BD30B40C465C4057
:1006C00004D50124E407634030BC6DE630BCFCE691
:1006D00070B50124E40761400D465D4002D4FFF788
:1006E00063FE70BD6340FFF7F0FE70BDFF070000C2
:1006F0000000F0FF0000F07F0000E0FF0000F87F46
:10070000F0B5F94D0C091E092C402E402F468BB038
:10071000A7437DD0B543FCD0002E7AD0002CFCD06E
:100720000D465D40ED0F2543AC1BFF25AD0464195C
:100730000894C502440DC9022143500DDC02044354
:100740000120C00701430443D2020191200C110C87
:1007500000958C46010423468B430A9161460904A7
:10076000E24D8A430991010A7D444919803909788B
:1007700005464D4301266D18F605751B6943C90CE6
:10078000640B891C4C436418B5012C1B250C2E04EA
:10079000B4434C434D43210C691889090591009DD0
:1007A000E90701D00121C90704912C460199670886
:1007B000CD072F434C08059DE10B4D432D0C2946D9
:1007C0006646754302950D4645432E46029D7D1BA8
:1007D000B44100950D465D4301942C0C2F040D4649
:1007E0005543AE462D0C3D43029503947546049C3B
:1007F0002D04641B049406D2029C039D641C0026F5
:1008000075410395029401AC70CC009F7D1B01E003
:100810003EE162E1B4410904009507910194059914
:10082000A4086143090C0C464443650BE7040C46DD
:1008300066467443A646640B3C4303950294744693
:10084000049DE4042C1B049406D2029C039D641CAA
:10085000002675410395029401AC70CC009F7D1B6E
:10086000B44101940C465C430095650FE7000C46CB
:100870005443A646640F3C43039502947446049D7A
:10088000E4002C1B049406D2029C039D641C0026E9
:1008900075410395029401AC70CC009F7D1BB4415F
:1008A000AE09AF06049DC900AD092F43049DA406FF
:1008B000AD060495079D344369180791059DE10B2A
:1008C0004D432D0C29466646754302950D4645431A
:1008D0002E46029D7D1BB44100950D465D4301945B
:1008E0002C0C2F040D465543AE462D0C3D4302956E
:1008F00003947546049C2D04641B049406D2029C48
:10090000039D641C002675410395029401AC70CCD4
:10091000009F7D1BB44101948C050694079C890AB5
:10092000611800950791019C0599A4086143090C81
:100930000D464543680BEF040D46644665436C0B5A
:100940003C43049FED047D1BAC4602D20025641C91
:100950006841009E019D371B85410846584301951B
:100960000C46460FC5005443600F28436546E4001B
:100970002C1B02D20025401C6E41019D3F1AB5413F
:100980002846BD09800628438446A009BF064E02BA
:100990000699A40676180743079D002068410A9926
:1009A000079019430020099B00906046FF191343EC
:1009B0004041E20F64003A43A4460446D71A8C41F2
:1009C000A04203D90120009020463A46C70F941850
:1009D00040416246D20F2243644664000494009C66
:1009E000BE466400D71AA446044602978C41774657
:1009F000002F01D1A04204D96046401C8446029ACF
:100A00002046C40FA64694184041049A0546D20FCA
:100A1000224364466400D31A8D417146002901D1F6
:100A2000A84202D928461A46641C10430122002815
:100A300000D0164361020020079B891904465C41DF
:100A40000223002C02DB491813466441089DCE0A9C
:100A50002D145D194B056705E10A2C050D19089940
:100A60003E43C9076940002B08D0934006D30022BB
:100A7000761C5141002B01D1760876001C4A002DCE
:100A800043DB154241D0AA433FD030460BB0F0BD06
:100A900006180D464D41174C7642AC411AD39518B5
:100AA0001C465C41134A6D42A24113D301225205F8
:100AB0004C00D4420AD15C00D4420BD04B4002D54A
:100AC00092021143E2E749004908DFE75940C90FA4
:100AD000C90718E000200849D8E7054801420DD1B0
:100AE0000342F7D0F2E700000000FF078C2200006D
:100AF0000000F07F0000E0FF0000F87F114859403F
:100B00000143C01241400020C0E70123089A9B0620
:100B10009A4205DC032252078918C90FC907B5E7B5
:100B2000052252078918074A1143D2125140ADE7F6
:100B300070B515461C4602460B4628462146FFF76F
:100B4000DFFD70BDFFFFFF7F0346CA02400D10B5F9
:100B500010430A1504D00124E4072043002A05DBD2
:100B60000A4CA21A04D4D040FF2A00DD002010BD98
:100B70004A00002B01D0012000E0002010180122C3
:100B80005205D042F2D8C817C04310BD1E04000061
:100B90001F22030C02D10F22000402D0030E03D047
:100BA00004E00020014670470002083A030F01D11B
:100BB0000001121F830F01D18000921E002801DB6B
:100BC0004000521E120551184205C012411810462D
:100BD0007047C10FC90700D040420122920711435C
:100BE000D6E701218907D3E7F0B58B4C0F092546DD
:100BF00089B0BD437BD01D092646AE43FAD00E46D0
:100C00005E402740F60F3E43254071D0240121422B
:100C1000FBD0FF24AD19A4042D1B039501252D0540
:100C2000DB02DB0AC9022B43C90A29431E01090161
:100C3000040F130F050121431701880B8203914311
:100C40002D098C46A90B1E438A039543B30B9A03C7
:100C500096433F09BA0B9403A74302962E467E4360
:100C60000497B6464E19D7190C460196544305977A
:100C70007E43371B7646BF1B3601B646BE0B361980
:100C800000967646BC043719009C01D3641C00947E
:100C90006400002F01D001263443029E049F754357
:100CA00066467E430496760034196E00341900942B
:100CB000029C019E1C196643751BAE460694654650
:100CC0004519059C05956C43594375460891691A69
:100CD0000191049E01465143A41B0491611A009C9A
:100CE0000791E10605D061090122114302E072E09B
:100CF0006EE06109089D00272C0A2D066918049DE5
:100D00007C412A0A2D066918019D6241AC0DAD0295
:100D10006D185441079A910D920255196141029A3A
:100D2000644658435443069B059A5A43121A131BB0
:100D30009A0E9B015B187A41010B0005C3185141C3
:100D4000220A200644195A419A4200D2491C012025
:100D50004002814203D315230226F64302E0142306
:100D60000326F6432020C51AA9401746AF40DA40B3
:100D70000A4320460399D8400914731819055118DD
:100D8000039A3843D2075140AC4009D00122944025
:100D900006D30022401C5141002C01D140084000E4
:100DA0001E4A934212D3012203989206904207DB17
:100DB0000520400709181A480143C012414004E0C9
:100DC000032040070818C10FC907002009B0F0BD73
:100DD0000020F107FAE705180C464C4111486D4216
:100DE000A04115D394181A465A410E4864429041C6
:100DF0000ED301204A004005824209D35A008242A4
:100E000006D35940C90F084AC90700201143DDE73E
:100E100000200649DAE700000000FF07FE07000097
:100E2000FFFFFF7F0000E0FF0000F07F0000F87F81
:100E30000121C9050123411842001B06D3185B0E8E
:100E40000AD0C1100722D206891840075242D14267
:100E500001D5520089187047090208D50146002AB9
:100E600003D0C10FC90700207047104670474202E7
:100E700002D0002002497047072109050143F4E729
:100E80000000F87FF0B5FF252D04C609C209FF2731
:100E900004462E400137CB093E4348402A402B40B0
:100EA0000746002A6BD0002B69D0AA4267D0AB421C
:100EB00065D0002800DA32460125ED0529432C4390
:100EC00009022002090AD21A4B0C7F24E31A434C70
:100ED000000A7C44E35C7D242404121914145B0092
:100EE000A218884201D3521C00E0400049420C463F
:100EF0005C4324115C43DB016415E318040A5C4382
:100F0000C502200D0C4644436419250A5D432303A2
:100F1000EC0C0D46654300030019EB184C42A3424C
:100F200001D35B18401CD4052018002B07D05B00B0
:100F3000C91804D3401C002901D1400840003F21BA
:100F400089048A4209D3002A08DC1106090F04D05B
:100F5000032149074018C00FC007F0BD012241001E
:100F6000120689187F2252069142F6D205214907BE
:100F7000C84201D59010F0BDFF20C005F0BD002F84
:100F800000DA32461648AA4207D2AB4205D219020D
:100F9000090E17D0F80FC007F0BDFF2563002D061E
:100FA000AB42F9D84900A942F6D8AB4201D1A942D7
:100FB000F2D0A94201D1002101E061004908D00529
:100FC0000843F0BD1102090EFBD0FF200243D005FB
:100FD000F0BD0A460146104654E70000A21B00007F
:100FE0000000C07F10B501469E240002CA15A30769
:100FF000002A02D01843002A04DBA21A002A0CDDC2
:10100000D04010BD1206120E01D140004008A21AB5
:1010100003D4D04040420028F3DDFF2248001206EE
:10102000904201D9002010BDC817C043584010BDE0
:101030000102C21504D00123DB071943002A0ADB91
:101040009E239A1A02D40846D0407047FF224100DE
:101050001206914201D900207047C017C043704763
:101060001F22030C02D10F2200041CD0030E01D159
:101070000002083A030F01D10001121F830F01D1B2
:101080008000921E002801DB4000521ED20551183C
:10109000021251181922904004D3491C002801D192
:1010A0004908490008467047C10FC90700D04042AF
:1010B000012292071143D3E701218907D0E710B538
:1010C00000F0BAF8006810BD10B5044600F0B4F89E
:1010D000046010BDF0B53D4B02460C461C4000209C
:1010E000002C63D03A4D8B4366D000296BDB0B0D8F
:1010F0001D05A94301252D0529430124FD33E340A6
:1011000001D392184941FF3381339C468B02940DE1
:101110000121234389074C42920200271B198C109E
:101120005D1A04D42D1B02D42B4665004919921870
:101130005B416408F4D15C1A08D40125ED07EE1771
:101140005519744102D42A462346491C94185B4120
:10115000012292071D46E61B8D4106D4B61A854131
:1011600003D42B46550034467F1924195B4152089D
:10117000802AEFD1234300D0022338460A22D040F0
:1011800001D3012213438A0510436246890A1205DE
:101190008918002B09D00122D34002D30022401C21
:1011A0005141002B01D140084000F0BD0B03134317
:1011B00007D0C90FC907F0BD0803104303D10029A8
:1011C00001DB1046F0BD00202946F0BD0000F07F95
:1011D0000000F87F10B5FF231B0644009C421DD879
:1011E0004C009C421AD80346124A0B4307D4401ABB
:1011F00002D3EFF3008010BDEFF3008010BD081A9A
:1012000006D2EFF3008001219043C907084302E0B2
:10121000EFF30080904380F3008810BD0D231B0482
:101220001A4204D01146002000F00AF810BD00F068
:101230001FF810BD0000009000487047A802002071
:10124000C80212D54803400F002804D0C803C04389
:10125000012188407047EFF300800001000903215D
:101260000907084380F3008870470020704700009A
:1012700010B5024800F02FF810BD00000000C07F3C
:1012800000487047A80200207546FFF7F9FFAE46F8
:10129000050069465346C008C000854618B020B511
:1012A000FEF774FF60BC00274908B6460026C0C59B
:1012B000C0C5C0C5C0C5C0C5C0C5C0C5C0C5403D0E
:1012C00049008D46704710B50446C046C0462046CA
:1012D000FEF73BFF10BD10B50C461107090F092999
:1012E00004D00A290AD008290CD104E011460820AC
:1012F000FFF7A6FF06E0510606D501E0510601D52D
:101300000120C007214610BDD10607D501010909FA
:10131000CC084907000E0006044309E0410F2002F3
:101320004907000A0143200E00061D22D141014356
:101330000846E7E701491820ABBEFEE72600020099
:101340007047000004480168490703D5016804227A
:1013500091430160704700000024014018488169F2
:101360008214114381614169032252041143416196
:101370000920C00601681522D2021143016081686C
:101380003F229202114381600E48016804221143FA
:10139000016081680C221143816002218161C121B9
:1013A00009488900018001881822114301801F210A
:1013B00009028180018840221143018070470000AA
:1013C000001002400004004800300140F0B585B034
:1013D0004B48016889077DD541680222114341606D
:1013E000484D49486A78418903910689C18802912C
:1013F00081880191418800910788002A2BD13846C5
:10140000FFF75AFE404C2C34216801F08DF9206022
:101410000098FFF751FE616801F086F9606001985D
:10142000FFF74AFEA16801F07FF9A0600298FFF77C
:1014300043FEE16801F078F9E0603046FFF73CFEDA
:10144000216901F071F920610398FFF735FE6169A8
:1014500001F06AF960613846FFF72EFE2A4F5C37CB
:101460003860014601F0D0F93C461834216801F09B
:101470005BF920600098FFF71FFE7860014601F0DD
:10148000C3F9616801F050F960600198FFF714FE3C
:10149000B860014601F0B8F9A16801F045F9A06013
:1014A0000298FFF709FEF860014601F0ADF9E16826
:1014B00001F03AF9E0603046FFF7FEFD3861014681
:1014C00001F0A2F9216901F02FF920610398FFF7DB
:1014D000F3FD00E012E07861014601F095F96169E1
:1014E00001F022F96061E86D401CE865A86D401CC0
:1014F000A8650649886804221043886005B0F0BDDD
:101500000000024014000020FC00002000240140E4
:1015100010B58CB0044601A800F0AEFA0749029855
:10152000FEF754FE60430B9002E00B98401E0B90B8
:101530000B980028F9D10CB010BD00001027000056
:1015400010B58CB0044601A800F096FA074902983D
:10155000FEF73CFE60430B9002E00B98401E0B90A0
:101560000B980028F9D10CB010BD000080969800AF
:1015700008B56946022200F05DFE6846008808BD95
:1015800013B5022201A900F0CFFE0A20FFF7C0FF29
:101590001CBD000005491022002803D00868104334
:1015A0000860704708689043086070470020024058
:1015B000F0B500220325012393400C681C409C4297
:1015C0002AD10C79012C01D0022C12D18768540049
:1015D0002E46A640B74387604E79A64084682643CE
:1015E000866084889C43848084888B7993401C43E4
:1015F0008480066853002C469C40A64306600E7902
:1016000007689E403E430660C668A643C660CC7924
:101610009C40C3681C43C460521C102ACBD3F0BD4D
:1016200010B54B07DB0E9A40C90889000818016AFB
:101630000F249C40A1430162016A1143016210BD65
:1016400002460020128A0A4200D0012070470000A2
:1016500070B58AB00121080200F0D2F901214804D6
:1016600000F0C0F9102000900221684601710125A8
:10167000457100248471C4710926F6066946304616
:10168000FFF796FF042211463046FFF7C9FF684670
:101690008583C4837D20C000089068468484134EEF
:1016A00007A9304600F06EFD602168460181458142
:1016B0000494848202A9304600F01CFD08213046C3
:1016C00000F05AFD0949203108888A141043088027
:1016D0000648403081880322920311438180012112
:1016E000304600F0EAFC0AB070BD00000020004067
:1016F00010B5174841690122920411434161C16943
:10170000D2001143C161016B102211430163092111
:10171000CC0604222046FFF783FF04220A2120463C
:10172000FFF77EFF20680F2189048843206020682E
:101730000521C90408432060A08803214902084309
:10174000A0800548034901610121016010BD00002E
:10175000001002403B1AB000005400403948416973
:101760002722520411434161374802680321890648
:101770008A4302600268354B1A4302608288012363
:101780005B039A43828082884B131A438280C2682B
:101790008A43C260C2680523DB061A43C2608268BE
:1017A0008A43826001688900890801608188490450
:1017B000490C818081880122D20311438180C16854
:1017C00089008908C160C168C2041143C160204812
:1017D0000168890889000160818849084900818081
:1017E0008188032211438180C1689143C160C1682F
:1017F00005221143C1600920C00601680C239943EA
:101800000160828802218A43828082880A43828022
:10181000C1689943C160C26804210A43C2600D488F
:10182000036830229343036083888B4383808388DB
:101830000B438380C1689143C160C168202211437A
:10184000C16070470010024000080048FFFFFFFB26
:101850000014004800040048FEB506464A4D68786A
:1018600000284FD1A870E86DFFF726FC01460190D3
:10187000A878840045480059FFF704FB4349183114
:101880000851424800270751012068703F480199DC
:1018900048300059FFF7F6FAFFF7CAFA00F020FFC8
:1018A000FEF744FDA97800918C0038496031085159
:1018B00018390F5130310A590146104600F034FFF3
:1018C00032499031085118390F51FFF7B1FA304FB2
:1018D00000223B46FFF788F9FEF728FD2B49A83187
:1018E0000851FFF7A5FA00223B46FFF77DF9FEF706
:1018F0001DFD2649C03108510099491CC8B2A87085
:101900000628B0D3E86DFFF7D7FB204D0146B400A1
:1019100048352859FFF7B6FAFFF78AFA00F0E0FEDB
:10192000FEF704FD29461831085100272F513035A4
:101930002A590146104600F0F7FE2851124A80321B
:10194000915D491CC9B291550A290AD11149FFF785
:1019500099FA01462846183001512F510A48803023
:1019600087550A4890300059FFF762FA0022084B69
:10197000FFF73AF9084A094BFEF79FFEFEF7D6FC3F
:101980000249A8310851FEBD1400002028010020A2
:101990000000483F00002041FA7E6ABC7493683F13
:1019A0008307FF22DB0E9A408907090E9940002821
:1019B0000BDA0007000F0838830808489B00181846
:1019C000C36993430B43C3617047830804489B007A
:1019D0001818036893430B430360704700ED00E061
:1019E00000E400E0054A002903D051690143516138
:1019F00070475169814351617047000000100240F7
:101A0000054A002903D0D1690143D1617047D169EA
:101A10008143D16170470000001002401248016804
:101A20000122114301604168104A11404160016880
:101A30000F4A114001600168012292049143016044
:101A400041683F22120491434160C16A09090901BA
:101A5000C162016B074A11400163416B49084900AB
:101A60004163002181607047001002400CB8FF08FC
:101A7000FFFFF6FEACFEF0FFF8B5044600215C4E19
:101A800070680C2210405B4D002820D0042820D024
:101A9000082820D00C2839D025607068F02210402A
:101AA0000009554B1F5C20680246FA40944662606C
:101AB000726807273F023A40120A9B5C6246DA408E
:101AC000A260336BDB0524D44C4BE36029E0256036
:101AD000E3E72560E1E771680F208004014070684A
:101AE0000322D20310408F0CBF1C00280AD0F06ADA
:101AF0000107090F491C2846FEF768FB7843014699
:101B00002160CAE73E4839464143F9E73D48206035
:101B1000C3E773685B0402D45308E36001E09308F1
:101B2000E360336B5F06384B03D4374F12372761BE
:101B300000E02361376BFF0601D4656100E060615E
:101B4000376BBF070ED0376BBF07BF0F012F0BD00E
:101B5000376BBF07BF0F022F08D0376BFF43BF079C
:101B600006D006E0A26104E0A06102E0A36100E00B
:101B7000A561376BBF03BF0F0FD0376BBF03BF0F1C
:101B8000012F0CD0376BBF03BF0F022F09D0376B6B
:101B9000BF03BF0F032F06D006E0E26104E0E0615F
:101BA00002E0E36100E0E561376B3F03BF0F0FD058
:101BB000326B1203920F012A0CD0306B0003800F9E
:101BC000022809D0306B0003800F032806D006E0FE
:101BD000226204E0206202E0236200E02562306BB2
:101BE000000602D407486062F8BD6162F8BD0000DB
:101BF0000010024000127A009A000020809FD50059
:101C000000093D00006CDC020080000010B5054AB0
:101C100053687B24E403A34353605368084303439E
:101C2000536010BD00100240034AD16A090909013E
:101C30000143D162704700000010024004490A8944
:101C40009207FCD588810889C007FCD08889704735
:101C50000030014070B50020022505221A4C120305
:101C600021682940401C002901D19042F8D1206808
:101C7000800701D5012000E00020012822D1FFF7D4
:101C800089FC124801680122114301600020FFF71E
:101C9000CBFF0521C9040020FFF7B8FF2068012110
:101CA00009060843206020688001FCD56068800830
:101CB0008000606060682843606060680007800F93
:101CC0000228FAD170BD000000100240002002403E
:101CD000F8B5424CA08B401C81B2A183E078401C37
:101CE000E070227820464030012A02D1C288521C7E
:101CF000C280C2883A4B00259A4202D10222227049
:101D0000C58037480126F930814204D9A583E6729F
:101D1000207E60762576206D867420300671A17C49
:101D20003048314F032902D0E17C032902D1217DC3
:101D3000002912D08269012149070A438261826920
:101D40004B001A438261B8690843B86104213846E0
:101D5000FFF776FC01280DD00DE0826901214903CF
:101D60000A43826182694B001A438261B869084361
:101D7000B861EBE7667204213846FFF761FC002882
:101D800000D16572012109033846FFF759FC01288B
:101D900000D1A572012109033846FFF751FC002844
:101DA00000D1A672E078C82816D10020FFF754FDB4
:101DB0000120FFF751FD0220FFF74EFD0320FFF742
:101DC0004BFD0420FFF748FD0520FFF745FDE570BA
:101DD0002671E06D2066E565F8BD00001400002066
:101DE000EE020000000800480004004813480168A3
:101DF0000122114301604168114A114041600168AC
:101E0000104A11400160016801229204914301606F
:101E100041683F22120491434160C16A09090901E6
:101E2000C162016BFF22543291430163416B490847
:101E300049004163002181607047000000100240AA
:101E40000CB8FF08FFFFF6FEF8B502218A4800F043
:101E500044F90027894E00287ED07179012034464C
:101E6000042904D1217B002901D1607320737F21D3
:101E7000C9056167A073824DE06EFEF7D9FF2A465F
:101E8000804BFEF70DFCFEF751FAE066206FFEF77F
:101E9000CFFF2A467B4BFEF703FCFEF747FA20678D
:101EA0000121794800F009F9608C00281AD02786B2
:101EB000714800F00EF9A084618C411A89B2E18466
:101EC00060847248FEF782F981B2218500916186B3
:101ED000E37B6F485A0081525B1CD9B2E1730E2933
:101EE00006D006E02786644800F0F3F860844DE0F1
:101EF000E77327742646317C738D4A00825AD218C4
:101F00007285491CC9B231740E29F4D30F21708D2A
:101F1000FEF75CF97085B07BFEF763FE04460D4664
:101F2000706FFEF785FF5B4A5B4BFEF75DFE224656
:101F30002B46FEF7E5FB04460D460098FEF751FEE2
:101F400022462B46FEF750FEFEF7FEFD80B2B0851E
:101F5000B16F0818B06700E01CE0717C491CC9B281
:101F600071740A290AD37774FEF73BFE4B4A4C4B37
:101F7000FEF73AFEFEF7E8FDF085B767F08D6428BE
:101F800000D377734749884200D3F18502213A484C
:101F900000F090F80421384800F09FF8374C4034A6
:101FA00000283ED0B08E002821D0F786324800F0BD
:101FB00092F83087B18E411A8DB27587B086294666
:101FC0003948FEF703F9B08769003748FEF7FEF895
:101FD0003C21484380B2F0872080F16F0818F067F9
:101FE0006188491C89B26180142906D015E0F78602
:101FF000214800F070F8B0860FE06780FEF7F1FD31
:10200000264A2A4BFEF7F0FDFEF79EFD80B2A08027
:10201000F7672749884200D3A1800421164800F0C1
:1020200049F8154D0121284600F057F8002822D024
:10203000308E401C81B23186F08E401C80B2F0861A
:102040007784B786B7843787F78477873785F787AC
:10205000B7852780012904D9F78577853786B76743
:102060007786012803D9A780F786F767B78701210C
:10207000284600F01FF8F8BD004001401400002081
:10208000FCA9F1D24D62503F00440140C0890100DB
:1020900008010020CDCCCCCCCCCC0C409A9999999D
:1020A0009999B93FE7030000A08601009999A93FDB
:1020B0000F270000C94301827047002904D001881E
:1020C00001221143018070470188490849000180BD
:1020D0007047406B7047806B704702460020138A40
:1020E0000B4092890A40002B02D0002A00D0012028
:1020F0007047000070B5028C520852000284048CB4
:102100008288038B7025AB439B089B000D881D4381
:1021100002239C438E8926434B883343104CA042B4
:1021200008D0104CA04205D00F4CA04202D00F4C5A
:10213000A0420FD10824A343CC891C4304239C4311
:102140008B8823430A4C22400A4C22400C8A1443B9
:102150004A8A22438280058389684163038470BD73
:10216000002C014000400140004401400048014073
:10217000FFFE0000FFFD0000028B08239A430A4384
:102180000283704710B50288144B984206D0012490
:10219000A407A04202D0124CA04203D17024A24353
:1021A0004C8822430F4CA04203D00F4C22400C8994
:1021B000224302804A68C2620A880285984208D097
:1021C0000A4A904205D00A4A904202D0094A9042F7
:1021D00001D1897A01860121818210BD002C014044
:1021E0000004004000100040FFFC000000400140DF
:1021F000004401400048014008B50B48C069800612
:1022000010D5094820308088C0B20090012269466C
:10221000064800F0E9F8694608880D2802D104490B
:102220000120087008BD0000003801404002002075
:10223000AA000020F0B594463A4B5A68012464067F
:10224000A2435A605A681D15AA435A605C68FF226F
:10225000120494435C605C68AE0134435C605C686B
:10226000A40AA4025C605C68A02634435C605C68DD
:102270005F143C435C609C692404FCD503E09C69CA
:10228000A40700D598629C69640605D49C69E4069D
:1022900002D49C692404F2D45868284358605868D2
:1022A000904358605868624612041043586058685A
:1022B000800A800258605868304358605868384334
:1022C000586098690004FCD505E09869400702D57C
:1022D000586A0870491C9869400605D49869C00678
:1022E00002D498690004F0D4586801218903084396
:1022F000586098690004FCD4D86920210843D8614B
:10230000D86910210843D86198698005800F07D0EB
:10231000D86949010843D861D86949100843D86190
:10232000F0BD00000054004030B52E4B5C68012524
:102330006D06AC435C605C681D15AC435C605C681A
:10234000FF252D04AC435C605C68521C12041443EE
:102350005C605A68920A92025A605A68A02422432A
:102360005A605A685C1422435A609A691204FCD578
:102370009A69920705D49A69D20602D49A6912041E
:10238000F6D49A69920707D5986205E098698007A4
:1023900002D50878491C98629869400605D4986966
:1023A000C00602D498690004F0D45868012189035A
:1023B0000843586098690004FCD4D8692021084378
:1023C000D861D86910210843D86198698005800FC9
:1023D00007D0D86949010843D861D8694910084332
:1023E000D86130BD00540040F0B5002317E04468C8
:1023F00085682646641CAC4215D0C768BC4201D132
:10240000002D10D00C780568491CAC554468641C3C
:102410004460C568AC4201D1002444605B1C934217
:10242000E5DB1046F0BD1846F0BD0000FFF7F6FAF8
:10243000FFF710FCFFF792F9FFF70AF9FFF758F9D9
:102440001420FFF765F89C487D21C9000068FDF75E
:10245000BDFE9A49401E884209D8994C606103210B
:10246000081FFFF79DFA0020A06107202061FEF7FA
:1024700075FF944D686EFEF717FEA96E00F054FAD2
:10248000FEF7B0FD68660A20FFF742F80920C00693
:10249000008A2C4680078C4E403400284EDB0120F9
:1024A000FFF736F8F701B761C820FFF749F887480A
:1024B000FFF7C4FBE8830220B0610120FFF728F892
:1024C000B761C820FFF73CF88048FFF7B7FBE88307
:1024D0000221B1614005400D2884B4214843800A9F
:1024E000FEF7EAFDA8660120FFF712F8B761C820E1
:1024F000FFF726F87548FFF7A1FBE8830220B061DB
:102500000120FFF705F8B761C820FFF719F86F48F9
:10251000FFF794FBE8830221B1614005400D288458
:10252000B4214843800AFEF7C7FDA866FEF780FD88
:1025300081B261810020FFF723F803E00020FFF75C
:1025400017F860816089FF27693787280AD3014619
:1025500087392181873080B2A081B84201D9C01B60
:10256000A0817DE00146E13121818730A08177E0C3
:10257000FEF7A2FD314600F09FF910D82089FEF742
:102580009BFDA96E00F016F909D82089FEF794FD8D
:10259000A96E00F0BDF9FEF74BFDE08149E06089CE
:1025A000FEF78AFDA96E00F005F90FD22089FEF72B
:1025B00083FDA96E00F0ACF9FEF73AFD80B2E08130
:1025C000B84236D9FF386938E08132E02089FEF719
:1025D00073FDA96E00F070F92BD2A189FF200F3096
:1025E000401AFEF761FDA96E00F09EF8FEF720FD8F
:1025F000E0811EE087281CD2354886420FDD314637
:10260000344800F091F906462089381AFEF74CFD4F
:10261000314600F089F9FEF70BFDE08109E02089E1
:10262000381AFEF741FD314600F07EF8FEF700FD56
:10263000E081E089FF210F3188420BD2FEF73CFD9B
:10264000696D00F0E1F8244900F06EF8FEF7F0FC47
:10265000688302E0E120800068832048698B416341
:102660000120FEF755FF0120174E4004B061C8203D
:10267000FEF766FF1548FFF7E1FAE8830220B06134
:102680000120FEF745FFF001B061C820FEF758FFBA
:102690000E48FFF7D3FAE8830221B1614005400DEF
:1026A0002884B4214843800AFEF706FD0646A86642
:1026B000608987289ED35BE700000020FFFFFF00B2
:1026C00000E000E01400002000040048FFFF0000CC
:1026D000000087430000B44300001843002000407E
:1026E000F8B506460C46FEF7F5FC051E0F4600D071
:1026F0000120014349000B484908411AC90F0DD078
:10270000002E01D0012100E000210C4361004908A6
:10271000401AC00F02D10120FEF7D6FC28463946E8
:10272000F8BD00000000F07F70B501250400ED0742
:102730004C4020D4441A01D2001B0919C60D4B008D
:10274000F2B2FF2A29D01B0E2CD000020C02D31AA1
:102750002C43DC402843051910D2280A02D3401C20
:102760006D0611D0761EF6058019FF2A00DA70BDBD
:10277000C00DC00570BD694000F0DCF801200543C4
:10278000C541521C761CE8E764089C40C9016140C1
:102790008900E7D10124A043E4E71B0E440200D0E6
:1027A000034870BD002AFCD1C00FC00770BD00BF38
:1027B0000000C07F01230200DB050A430DD4DA428A
:1027C00003D49A4207D488427047D84214D4D942DD
:1027D00012D48842704780427047DA4203D59A4249
:1027E000F9D5814270475B004200DA4204D24A00C8
:1027F000DA4201D28142704710B5024AFEF7EAFC84
:1028000010BD00BF0900160470B5420064414B00C2
:102810005C41120E39D01B0E38D0FF2A3CD0FF2B62
:102820003AD040024902400A490A060045184E4380
:10283000000A090AD2184843ED017F3A0104731ACD
:102840004019190C4318990F04D001215B0849075E
:102850005B1A521CD80904D3401CF50301D19D0614
:1028600007D0FF2A08D2D50506D0E4072043401937
:1028700070BD0125A843F4E7002A01DCE00770BD24
:102880002402FF202043C00570BD1B0EFF2A03D089
:10289000FF2B01D0E00770BDFF2645003606B5428C
:1028A00006D84D00B54203D8D218FF2A00D0E7E77A
:1028B000004870BD0000C07F01230A00DB05024311
:1028C0000DD4DA4203D49A4207D481427047D942E8
:1028D00014D4D84212D48142704789427047DA42F8
:1028E00003D59A42F9D5884270475B004A00DA4224
:1028F00004D24200DA4201D2884270474840414047
:1029000010B5024A4840FEF765FC10BD09001604E8
:1029100070B50125ED07684004004C4002D56940C0
:1029200000F008F8FFF706FF70B501250400ED0779
:102930004C4022D4441A02D26C40001B0919C60D27
:102940004B00F2B2FF2A4BD01B0E50D000020C02FB
:10295000D31A2C43DC40A843051B05D5AD0019D381
:102960006D08761E521E37D0F605280A01D280194E
:1029700070BD70416D0603D070BD6940FFF7DAFE8F
:102980009C4009026140490001D0401E70BD0124F5
:10299000A04370BD6D081DD001202B0C01D12D046A
:1029A00010302B0E01D12D0208302B0F01D12D013B
:1029B000001DAB0F01D1AD00801CEB0F01D16D00EC
:1029C000401C6D00361A121A680AF5054019012AD2
:1029D00002DB70BD002070BDC036300AC00770BD7C
:1029E0001B0E440201D1FF2B00D1024870BD002A0A
:1029F000F0D070BD0000C07F80807F7E7D7C7B7AC0
:102A00007978777676757473727171706F6E6E6D9A
:102A10006C6C6B6A6A696868676666656464636340
:102A200062616160605F5F5E5E5D5D5C5C5B5B5AC6
:102A30005A59595858575756565555555454535333
:102A400052525251515050504F4F4F4E4E4D4D4D8E
:102A50004C4C4C4B4B4B4A4A4A49494948484847D9
:102A60004747474646464545454444444443434317
:102A70004342424242414141818283848586878824
:102A8000898B8C8D8E8F919293959697999A9C9D18
:102A90009FA0A2A3A5A7A8AAACAEB0B2B3B5B7B980
:102AA000BCBEC0C2C5C7C9CCCED1D4D7D9DCDFE249
:102AB000E6E9ECF0F3F7FAFED82A0008000000205F
:102AC000AC000000F8000008842B0008AC000020D7
:102AD0005C08000014010008006CDC02000000002B
:102AE00000000000010203040607080900000000BE
:102AF00000000000000000000000000000000000D6
:102B0000000000000000AF00000000000000000016
:102B100000000000000000000000000000000000B5
:102B200000000000000000000000000000000000A5
:102B3000000000000000000000000000AC000020C9
:102B4000AE4731400000000000000000000000001F
:102B50000000000000000000000000000000000075
:102B60000000000000000000000000000000000065
:102B70000000000000000102030401020304060734
:042B80000809000040
:04000005080000B53A
:00000001FF
